{
  "_format": "hh-sol-artifact-1",
  "contractName": "GetYourKicksHiTops",
  "sourceName": "contracts/GetYourKicksHiTop.sol",
  "abi": [
    {
      "inputs": [
        {
          "internalType": "string",
          "name": "baseURI",
          "type": "string"
        }
      ],
      "stateMutability": "nonpayable",
      "type": "constructor"
    },
    {
      "anonymous": false,
      "inputs": [
        {
          "indexed": true,
          "internalType": "address",
          "name": "owner",
          "type": "address"
        },
        {
          "indexed": true,
          "internalType": "address",
          "name": "approved",
          "type": "address"
        },
        {
          "indexed": true,
          "internalType": "uint256",
          "name": "tokenId",
          "type": "uint256"
        }
      ],
      "name": "Approval",
      "type": "event"
    },
    {
      "anonymous": false,
      "inputs": [
        {
          "indexed": true,
          "internalType": "address",
          "name": "owner",
          "type": "address"
        },
        {
          "indexed": true,
          "internalType": "address",
          "name": "operator",
          "type": "address"
        },
        {
          "indexed": false,
          "internalType": "bool",
          "name": "approved",
          "type": "bool"
        }
      ],
      "name": "ApprovalForAll",
      "type": "event"
    },
    {
      "anonymous": false,
      "inputs": [
        {
          "indexed": true,
          "internalType": "address",
          "name": "previousOwner",
          "type": "address"
        },
        {
          "indexed": true,
          "internalType": "address",
          "name": "newOwner",
          "type": "address"
        }
      ],
      "name": "OwnershipTransferred",
      "type": "event"
    },
    {
      "anonymous": false,
      "inputs": [
        {
          "indexed": true,
          "internalType": "address",
          "name": "from",
          "type": "address"
        },
        {
          "indexed": true,
          "internalType": "address",
          "name": "to",
          "type": "address"
        },
        {
          "indexed": true,
          "internalType": "uint256",
          "name": "tokenId",
          "type": "uint256"
        }
      ],
      "name": "Transfer",
      "type": "event"
    },
    {
      "inputs": [],
      "name": "MAX_PER_MINT",
      "outputs": [
        {
          "internalType": "uint256",
          "name": "",
          "type": "uint256"
        }
      ],
      "stateMutability": "view",
      "type": "function"
    },
    {
      "inputs": [],
      "name": "MAX_SUPPLY",
      "outputs": [
        {
          "internalType": "uint256",
          "name": "",
          "type": "uint256"
        }
      ],
      "stateMutability": "view",
      "type": "function"
    },
    {
      "inputs": [],
      "name": "PRESALE_STATUS",
      "outputs": [
        {
          "internalType": "uint256",
          "name": "",
          "type": "uint256"
        }
      ],
      "stateMutability": "view",
      "type": "function"
    },
    {
      "inputs": [],
      "name": "PRICE",
      "outputs": [
        {
          "internalType": "uint256",
          "name": "",
          "type": "uint256"
        }
      ],
      "stateMutability": "view",
      "type": "function"
    },
    {
      "inputs": [
        {
          "internalType": "address",
          "name": "to",
          "type": "address"
        },
        {
          "internalType": "uint256",
          "name": "tokenId",
          "type": "uint256"
        }
      ],
      "name": "approve",
      "outputs": [],
      "stateMutability": "nonpayable",
      "type": "function"
    },
    {
      "inputs": [
        {
          "internalType": "address",
          "name": "owner",
          "type": "address"
        }
      ],
      "name": "balanceOf",
      "outputs": [
        {
          "internalType": "uint256",
          "name": "",
          "type": "uint256"
        }
      ],
      "stateMutability": "view",
      "type": "function"
    },
    {
      "inputs": [],
      "name": "baseTokenURI",
      "outputs": [
        {
          "internalType": "string",
          "name": "",
          "type": "string"
        }
      ],
      "stateMutability": "view",
      "type": "function"
    },
    {
      "inputs": [],
      "name": "closePresale",
      "outputs": [],
      "stateMutability": "nonpayable",
      "type": "function"
    },
    {
      "inputs": [
        {
          "internalType": "uint256",
          "name": "tokenId",
          "type": "uint256"
        }
      ],
      "name": "getApproved",
      "outputs": [
        {
          "internalType": "address",
          "name": "",
          "type": "address"
        }
      ],
      "stateMutability": "view",
      "type": "function"
    },
    {
      "inputs": [
        {
          "internalType": "address",
          "name": "owner",
          "type": "address"
        },
        {
          "internalType": "address",
          "name": "operator",
          "type": "address"
        }
      ],
      "name": "isApprovedForAll",
      "outputs": [
        {
          "internalType": "bool",
          "name": "",
          "type": "bool"
        }
      ],
      "stateMutability": "view",
      "type": "function"
    },
    {
      "inputs": [
        {
          "internalType": "uint256",
          "name": "_count",
          "type": "uint256"
        }
      ],
      "name": "mintNFTs",
      "outputs": [],
      "stateMutability": "payable",
      "type": "function"
    },
    {
      "inputs": [],
      "name": "name",
      "outputs": [
        {
          "internalType": "string",
          "name": "",
          "type": "string"
        }
      ],
      "stateMutability": "pure",
      "type": "function"
    },
    {
      "inputs": [],
      "name": "owner",
      "outputs": [
        {
          "internalType": "address",
          "name": "",
          "type": "address"
        }
      ],
      "stateMutability": "view",
      "type": "function"
    },
    {
      "inputs": [
        {
          "internalType": "uint256",
          "name": "tokenId",
          "type": "uint256"
        }
      ],
      "name": "ownerOf",
      "outputs": [
        {
          "internalType": "address",
          "name": "",
          "type": "address"
        }
      ],
      "stateMutability": "view",
      "type": "function"
    },
    {
      "inputs": [],
      "name": "proxyRegistryAddress",
      "outputs": [
        {
          "internalType": "address",
          "name": "",
          "type": "address"
        }
      ],
      "stateMutability": "view",
      "type": "function"
    },
    {
      "inputs": [],
      "name": "renounceOwnership",
      "outputs": [],
      "stateMutability": "nonpayable",
      "type": "function"
    },
    {
      "inputs": [
        {
          "internalType": "uint256",
          "name": "_count",
          "type": "uint256"
        }
      ],
      "name": "reserveNFTs",
      "outputs": [],
      "stateMutability": "nonpayable",
      "type": "function"
    },
    {
      "inputs": [
        {
          "internalType": "address",
          "name": "from",
          "type": "address"
        },
        {
          "internalType": "address",
          "name": "to",
          "type": "address"
        },
        {
          "internalType": "uint256",
          "name": "tokenId",
          "type": "uint256"
        }
      ],
      "name": "safeTransferFrom",
      "outputs": [],
      "stateMutability": "nonpayable",
      "type": "function"
    },
    {
      "inputs": [
        {
          "internalType": "address",
          "name": "from",
          "type": "address"
        },
        {
          "internalType": "address",
          "name": "to",
          "type": "address"
        },
        {
          "internalType": "uint256",
          "name": "tokenId",
          "type": "uint256"
        },
        {
          "internalType": "bytes",
          "name": "_data",
          "type": "bytes"
        }
      ],
      "name": "safeTransferFrom",
      "outputs": [],
      "stateMutability": "nonpayable",
      "type": "function"
    },
    {
      "inputs": [
        {
          "internalType": "address",
          "name": "operator",
          "type": "address"
        },
        {
          "internalType": "bool",
          "name": "approved",
          "type": "bool"
        }
      ],
      "name": "setApprovalForAll",
      "outputs": [],
      "stateMutability": "nonpayable",
      "type": "function"
    },
    {
      "inputs": [
        {
          "internalType": "string",
          "name": "_baseTokenURI",
          "type": "string"
        }
      ],
      "name": "setBaseURI",
      "outputs": [],
      "stateMutability": "nonpayable",
      "type": "function"
    },
    {
      "inputs": [
        {
          "internalType": "bytes4",
          "name": "interfaceId",
          "type": "bytes4"
        }
      ],
      "name": "supportsInterface",
      "outputs": [
        {
          "internalType": "bool",
          "name": "",
          "type": "bool"
        }
      ],
      "stateMutability": "view",
      "type": "function"
    },
    {
      "inputs": [],
      "name": "symbol",
      "outputs": [
        {
          "internalType": "string",
          "name": "",
          "type": "string"
        }
      ],
      "stateMutability": "pure",
      "type": "function"
    },
    {
      "inputs": [
        {
          "internalType": "uint256",
          "name": "index",
          "type": "uint256"
        }
      ],
      "name": "tokenByIndex",
      "outputs": [
        {
          "internalType": "uint256",
          "name": "",
          "type": "uint256"
        }
      ],
      "stateMutability": "view",
      "type": "function"
    },
    {
      "inputs": [
        {
          "internalType": "address",
          "name": "owner",
          "type": "address"
        },
        {
          "internalType": "uint256",
          "name": "index",
          "type": "uint256"
        }
      ],
      "name": "tokenOfOwnerByIndex",
      "outputs": [
        {
          "internalType": "uint256",
          "name": "",
          "type": "uint256"
        }
      ],
      "stateMutability": "view",
      "type": "function"
    },
    {
      "inputs": [
        {
          "internalType": "uint256",
          "name": "tokenId",
          "type": "uint256"
        }
      ],
      "name": "tokenURI",
      "outputs": [
        {
          "internalType": "string",
          "name": "",
          "type": "string"
        }
      ],
      "stateMutability": "view",
      "type": "function"
    },
    {
      "inputs": [
        {
          "internalType": "address",
          "name": "_owner",
          "type": "address"
        }
      ],
      "name": "tokensOfOwner",
      "outputs": [
        {
          "internalType": "uint256[]",
          "name": "",
          "type": "uint256[]"
        }
      ],
      "stateMutability": "view",
      "type": "function"
    },
    {
      "inputs": [],
      "name": "totalSupply",
      "outputs": [
        {
          "internalType": "uint256",
          "name": "",
          "type": "uint256"
        }
      ],
      "stateMutability": "view",
      "type": "function"
    },
    {
      "inputs": [
        {
          "internalType": "address",
          "name": "from",
          "type": "address"
        },
        {
          "internalType": "address",
          "name": "to",
          "type": "address"
        },
        {
          "internalType": "uint256",
          "name": "tokenId",
          "type": "uint256"
        }
      ],
      "name": "transferFrom",
      "outputs": [],
      "stateMutability": "nonpayable",
      "type": "function"
    },
    {
      "inputs": [
        {
          "internalType": "address",
          "name": "newOwner",
          "type": "address"
        }
      ],
      "name": "transferOwnership",
      "outputs": [],
      "stateMutability": "nonpayable",
      "type": "function"
    },
    {
      "inputs": [],
      "name": "withdraw",
      "outputs": [],
      "stateMutability": "payable",
      "type": "function"
    }
  ],
  "bytecode": "0x60806040523480156200001157600080fd5b50604051620049a8380380620049a8833981810160405281019062000037919062000534565b6040518060400160405280601281526020017f476574596f75724b69636b734869546f707300000000000000000000000000008152506040518060400160405280600581526020017f47594b48540000000000000000000000000000000000000000000000000000008152508160009080519060200190620000bb929190620002e7565b508060019080519060200190620000d4929190620002e7565b505050620000f7620000eb6200012e60201b60201c565b6200013660201b60201c565b6200010881620001fc60201b60201c565b6200011f600b620002a760201b6200173f1760201c565b6001600c81905550506200066d565b600033905090565b6000600a60009054906101000a900473ffffffffffffffffffffffffffffffffffffffff16905081600a60006101000a81548173ffffffffffffffffffffffffffffffffffffffff021916908373ffffffffffffffffffffffffffffffffffffffff1602179055508173ffffffffffffffffffffffffffffffffffffffff168173ffffffffffffffffffffffffffffffffffffffff167f8be0079c531659141344cd1fd0a4f28419497f9722a3daafe3b4186f6b6457e060405160405180910390a35050565b6200020c6200012e60201b60201c565b73ffffffffffffffffffffffffffffffffffffffff1662000232620002bd60201b60201c565b73ffffffffffffffffffffffffffffffffffffffff16146200028b576040517f08c379a00000000000000000000000000000000000000000000000000000000081526004016200028290620005e6565b60405180910390fd5b80600d9080519060200190620002a3929190620002e7565b5050565b6001816000016000828254019250508190555050565b6000600a60009054906101000a900473ffffffffffffffffffffffffffffffffffffffff16905090565b828054620002f59062000637565b90600052602060002090601f01602090048101928262000319576000855562000365565b82601f106200033457805160ff191683800117855562000365565b8280016001018555821562000365579182015b828111156200036457825182559160200191906001019062000347565b5b50905062000374919062000378565b5090565b5b808211156200039357600081600090555060010162000379565b5090565b6000604051905090565b600080fd5b600080fd5b600080fd5b600080fd5b6000601f19601f8301169050919050565b7f4e487b7100000000000000000000000000000000000000000000000000000000600052604160045260246000fd5b6200040082620003b5565b810181811067ffffffffffffffff82111715620004225762000421620003c6565b5b80604052505050565b60006200043762000397565b9050620004458282620003f5565b919050565b600067ffffffffffffffff821115620004685762000467620003c6565b5b6200047382620003b5565b9050602081019050919050565b60005b83811015620004a057808201518184015260208101905062000483565b83811115620004b0576000848401525b50505050565b6000620004cd620004c7846200044a565b6200042b565b905082815260208101848484011115620004ec57620004eb620003b0565b5b620004f984828562000480565b509392505050565b600082601f830112620005195762000518620003ab565b5b81516200052b848260208601620004b6565b91505092915050565b6000602082840312156200054d576200054c620003a1565b5b600082015167ffffffffffffffff8111156200056e576200056d620003a6565b5b6200057c8482850162000501565b91505092915050565b600082825260208201905092915050565b7f4f776e61626c653a2063616c6c6572206973206e6f7420746865206f776e6572600082015250565b6000620005ce60208362000585565b9150620005db8262000596565b602082019050919050565b600060208201905081810360008301526200060181620005bf565b9050919050565b7f4e487b7100000000000000000000000000000000000000000000000000000000600052602260045260246000fd5b600060028204905060018216806200065057607f821691505b6020821081141562000667576200066662000608565b5b50919050565b61432b806200067d6000396000f3fe6080604052600436106101d85760003560e01c806363cea45011610102578063b88d4fde11610095578063cd7c032611610064578063cd7c032614610690578063d547cfb7146106bb578063e985e9c5146106e6578063f2fde38b14610723576101d8565b8063b88d4fde146105d6578063bb2c7c77146105ff578063bc7df0911461062a578063c87b56dd14610653576101d8565b80638d859f3e116100d15780638d859f3e1461052c5780638da5cb5b1461055757806395d89b4114610582578063a22cb465146105ad576101d8565b806363cea4501461048457806370a082311461049b578063715018a6146104d85780638462151c146104ef576101d8565b80632f745c591161017a57806342842e0e1161014957806342842e0e146103b85780634f6ccce7146103e157806355f804b31461041e5780636352211e14610447576101d8565b80632f745c591461032a57806332cb6b0c146103675780633b4b1381146103925780633ccfd60b146103ae576101d8565b8063095ea7b3116101b6578063095ea7b31461028257806309d42b30146102ab57806318160ddd146102d657806323b872dd14610301576101d8565b806301ffc9a7146101dd57806306fdde031461021a578063081812fc14610245575b600080fd5b3480156101e957600080fd5b5061020460048036038101906101ff9190612af9565b61074c565b6040516102119190612b41565b60405180910390f35b34801561022657600080fd5b5061022f6107c6565b60405161023c9190612bf5565b60405180910390f35b34801561025157600080fd5b5061026c60048036038101906102679190612c4d565b610803565b6040516102799190612cbb565b60405180910390f35b34801561028e57600080fd5b506102a960048036038101906102a49190612d02565b610888565b005b3480156102b757600080fd5b506102c06109a0565b6040516102cd9190612d51565b60405180910390f35b3480156102e257600080fd5b506102eb6109a5565b6040516102f89190612d51565b60405180910390f35b34801561030d57600080fd5b5061032860048036038101906103239190612d6c565b6109b2565b005b34801561033657600080fd5b50610351600480360381019061034c9190612d02565b610a12565b60405161035e9190612d51565b60405180910390f35b34801561037357600080fd5b5061037c610ab7565b6040516103899190612d51565b60405180910390f35b6103ac60048036038101906103a79190612c4d565b610abd565b005b6103b6610c9b565b005b3480156103c457600080fd5b506103df60048036038101906103da9190612d6c565b610e0f565b005b3480156103ed57600080fd5b5061040860048036038101906104039190612c4d565b610e2f565b6040516104159190612d51565b60405180910390f35b34801561042a57600080fd5b5061044560048036038101906104409190612ef4565b610ea0565b005b34801561045357600080fd5b5061046e60048036038101906104699190612c4d565b610f36565b60405161047b9190612cbb565b60405180910390f35b34801561049057600080fd5b50610499610fe8565b005b3480156104a757600080fd5b506104c260048036038101906104bd9190612f3d565b61106e565b6040516104cf9190612d51565b60405180910390f35b3480156104e457600080fd5b506104ed611126565b005b3480156104fb57600080fd5b5061051660048036038101906105119190612f3d565b6111ae565b6040516105239190613028565b60405180910390f35b34801561053857600080fd5b5061054161125c565b60405161054e9190612d51565b60405180910390f35b34801561056357600080fd5b5061056c611268565b6040516105799190612cbb565b60405180910390f35b34801561058e57600080fd5b50610597611292565b6040516105a49190612bf5565b60405180910390f35b3480156105b957600080fd5b506105d460048036038101906105cf9190613076565b6112cf565b005b3480156105e257600080fd5b506105fd60048036038101906105f89190613157565b6112e5565b005b34801561060b57600080fd5b50610614611347565b6040516106219190612d51565b60405180910390f35b34801561063657600080fd5b50610651600480360381019061064c9190612c4d565b61134d565b005b34801561065f57600080fd5b5061067a60048036038101906106759190612c4d565b611458565b6040516106879190612bf5565b60405180910390f35b34801561069c57600080fd5b506106a56114ff565b6040516106b29190612cbb565b60405180910390f35b3480156106c757600080fd5b506106d0611525565b6040516106dd9190612bf5565b60405180910390f35b3480156106f257600080fd5b5061070d600480360381019061070891906131da565b6115b3565b60405161071a9190612b41565b60405180910390f35b34801561072f57600080fd5b5061074a60048036038101906107459190612f3d565b611647565b005b60007f780e9d63000000000000000000000000000000000000000000000000000000007bffffffffffffffffffffffffffffffffffffffffffffffffffffffff1916827bffffffffffffffffffffffffffffffffffffffffffffffffffffffff191614806107bf57506107be82611755565b5b9050919050565b60606040518060400160405280601381526020017f476574596f75724b69636b73204869546f707300000000000000000000000000815250905090565b600061080e82611837565b61084d576040517f08c379a00000000000000000000000000000000000000000000000000000000081526004016108449061328c565b60405180910390fd5b6004600083815260200190815260200160002060009054906101000a900473ffffffffffffffffffffffffffffffffffffffff169050919050565b600061089382610f36565b90508073ffffffffffffffffffffffffffffffffffffffff168373ffffffffffffffffffffffffffffffffffffffff161415610904576040517f08c379a00000000000000000000000000000000000000000000000000000000081526004016108fb9061331e565b60405180910390fd5b8073ffffffffffffffffffffffffffffffffffffffff166109236118a3565b73ffffffffffffffffffffffffffffffffffffffff16148061095257506109518161094c6118a3565b6115b3565b5b610991576040517f08c379a0000000000000000000000000000000000000000000000000000000008152600401610988906133b0565b60405180910390fd5b61099b83836118ab565b505050565b600581565b6000600880549050905090565b6109c36109bd6118a3565b82611964565b610a02576040517f08c379a00000000000000000000000000000000000000000000000000000000081526004016109f990613442565b60405180910390fd5b610a0d838383611a42565b505050565b6000610a1d8361106e565b8210610a5e576040517f08c379a0000000000000000000000000000000000000000000000000000000008152600401610a55906134d4565b60405180910390fd5b600660008473ffffffffffffffffffffffffffffffffffffffff1673ffffffffffffffffffffffffffffffffffffffff168152602001908152602001600020600083815260200190815260200160002054905092915050565b614e2081565b6000610ac9600b611c9e565b90506000678ac7230489e800009050614e20610aee8484611cac90919063ffffffff16565b1115610b2f576040517f08c379a0000000000000000000000000000000000000000000000000000000008152600401610b2690613540565b60405180910390fd5b600083118015610b40575060058311155b610b7f576040517f08c379a0000000000000000000000000000000000000000000000000000000008152600401610b76906135d2565b60405180910390fd5b6000600c54118015610b915750600283145b15610ba657676f05b59d3b2000009050610c1a565b6000600c54118015610bb85750600383145b15610bcd57676124fee993bc00009050610c19565b6000600c54118015610bdf5750600483145b15610bf4576753444835ec5800009050610c18565b6000600c54118015610c065750600583145b15610c1757674563918244f4000090505b5b5b5b610c2d8382611cc290919063ffffffff16565b341015610c6f576040517f08c379a0000000000000000000000000000000000000000000000000000000008152600401610c6690613664565b60405180910390fd5b60005b83811015610c9557610c82611cd8565b8080610c8d906136b3565b915050610c72565b50505050565b610ca36118a3565b73ffffffffffffffffffffffffffffffffffffffff16610cc1611268565b73ffffffffffffffffffffffffffffffffffffffff1614610d17576040517f08c379a0000000000000000000000000000000000000000000000000000000008152600401610d0e90613748565b60405180910390fd5b600047905060008111610d5f576040517f08c379a0000000000000000000000000000000000000000000000000000000008152600401610d56906137b4565b60405180910390fd5b60003373ffffffffffffffffffffffffffffffffffffffff1682604051610d8590613805565b60006040518083038185875af1925050503d8060008114610dc2576040519150601f19603f3d011682016040523d82523d6000602084013e610dc7565b606091505b5050905080610e0b576040517f08c379a0000000000000000000000000000000000000000000000000000000008152600401610e0290613866565b60405180910390fd5b5050565b610e2a838383604051806020016040528060008152506112e5565b505050565b6000610e396109a5565b8210610e7a576040517f08c379a0000000000000000000000000000000000000000000000000000000008152600401610e71906138f8565b60405180910390fd5b60088281548110610e8e57610e8d613918565b5b90600052602060002001549050919050565b610ea86118a3565b73ffffffffffffffffffffffffffffffffffffffff16610ec6611268565b73ffffffffffffffffffffffffffffffffffffffff1614610f1c576040517f08c379a0000000000000000000000000000000000000000000000000000000008152600401610f1390613748565b60405180910390fd5b80600d9080519060200190610f329291906129ea565b5050565b6000806002600084815260200190815260200160002060009054906101000a900473ffffffffffffffffffffffffffffffffffffffff169050600073ffffffffffffffffffffffffffffffffffffffff168173ffffffffffffffffffffffffffffffffffffffff161415610fdf576040517f08c379a0000000000000000000000000000000000000000000000000000000008152600401610fd6906139b9565b60405180910390fd5b80915050919050565b610ff06118a3565b73ffffffffffffffffffffffffffffffffffffffff1661100e611268565b73ffffffffffffffffffffffffffffffffffffffff1614611064576040517f08c379a000000000000000000000000000000000000000000000000000000000815260040161105b90613748565b60405180910390fd5b6000600c81905550565b60008073ffffffffffffffffffffffffffffffffffffffff168273ffffffffffffffffffffffffffffffffffffffff1614156110df576040517f08c379a00000000000000000000000000000000000000000000000000000000081526004016110d690613a4b565b60405180910390fd5b600360008373ffffffffffffffffffffffffffffffffffffffff1673ffffffffffffffffffffffffffffffffffffffff168152602001908152602001600020549050919050565b61112e6118a3565b73ffffffffffffffffffffffffffffffffffffffff1661114c611268565b73ffffffffffffffffffffffffffffffffffffffff16146111a2576040517f08c379a000000000000000000000000000000000000000000000000000000000815260040161119990613748565b60405180910390fd5b6111ac6000611cfd565b565b606060006111bb8361106e565b905060008167ffffffffffffffff8111156111d9576111d8612dc9565b5b6040519080825280602002602001820160405280156112075781602001602082028036833780820191505090505b50905060005b828110156112515761121f8582610a12565b82828151811061123257611231613918565b5b6020026020010181815250508080611249906136b3565b91505061120d565b508092505050919050565b678ac7230489e8000081565b6000600a60009054906101000a900473ffffffffffffffffffffffffffffffffffffffff16905090565b60606040518060400160405280600581526020017f47594b4854000000000000000000000000000000000000000000000000000000815250905090565b6112e16112da6118a3565b8383611dc3565b5050565b6112f66112f06118a3565b83611964565b611335576040517f08c379a000000000000000000000000000000000000000000000000000000000815260040161132c90613442565b60405180910390fd5b61134184848484611f30565b50505050565b600c5481565b6113556118a3565b73ffffffffffffffffffffffffffffffffffffffff16611373611268565b73ffffffffffffffffffffffffffffffffffffffff16146113c9576040517f08c379a00000000000000000000000000000000000000000000000000000000081526004016113c090613748565b60405180910390fd5b60006113d5600b611c9e565b9050614e206113ed8383611cac90919063ffffffff16565b1061142d576040517f08c379a000000000000000000000000000000000000000000000000000000000815260040161142490613add565b60405180910390fd5b60005b8281101561145357611440611cd8565b808061144b906136b3565b915050611430565b505050565b606061146382611837565b6114a2576040517f08c379a000000000000000000000000000000000000000000000000000000000815260040161149990613b6f565b60405180910390fd5b60006114ac611f8c565b905060008151116114cc57604051806020016040528060008152506114f7565b806114d68461201e565b6040516020016114e7929190613bcb565b6040516020818303038152906040525b915050919050565b600e60009054906101000a900473ffffffffffffffffffffffffffffffffffffffff1681565b600d805461153290613c1e565b80601f016020809104026020016040519081016040528092919081815260200182805461155e90613c1e565b80156115ab5780601f10611580576101008083540402835291602001916115ab565b820191906000526020600020905b81548152906001019060200180831161158e57829003601f168201915b505050505081565b6000600560008473ffffffffffffffffffffffffffffffffffffffff1673ffffffffffffffffffffffffffffffffffffffff16815260200190815260200160002060008373ffffffffffffffffffffffffffffffffffffffff1673ffffffffffffffffffffffffffffffffffffffff16815260200190815260200160002060009054906101000a900460ff16905092915050565b61164f6118a3565b73ffffffffffffffffffffffffffffffffffffffff1661166d611268565b73ffffffffffffffffffffffffffffffffffffffff16146116c3576040517f08c379a00000000000000000000000000000000000000000000000000000000081526004016116ba90613748565b60405180910390fd5b600073ffffffffffffffffffffffffffffffffffffffff168173ffffffffffffffffffffffffffffffffffffffff161415611733576040517f08c379a000000000000000000000000000000000000000000000000000000000815260040161172a90613cc2565b60405180910390fd5b61173c81611cfd565b50565b6001816000016000828254019250508190555050565b60007f80ac58cd000000000000000000000000000000000000000000000000000000007bffffffffffffffffffffffffffffffffffffffffffffffffffffffff1916827bffffffffffffffffffffffffffffffffffffffffffffffffffffffff1916148061182057507f5b5e139f000000000000000000000000000000000000000000000000000000007bffffffffffffffffffffffffffffffffffffffffffffffffffffffff1916827bffffffffffffffffffffffffffffffffffffffffffffffffffffffff1916145b80611830575061182f8261217f565b5b9050919050565b60008073ffffffffffffffffffffffffffffffffffffffff166002600084815260200190815260200160002060009054906101000a900473ffffffffffffffffffffffffffffffffffffffff1673ffffffffffffffffffffffffffffffffffffffff1614159050919050565b600033905090565b816004600083815260200190815260200160002060006101000a81548173ffffffffffffffffffffffffffffffffffffffff021916908373ffffffffffffffffffffffffffffffffffffffff160217905550808273ffffffffffffffffffffffffffffffffffffffff1661191e83610f36565b73ffffffffffffffffffffffffffffffffffffffff167f8c5be1e5ebec7d5bd14f71427d1e84f3dd0314c0f7b2291e5b200ac8c7c3b92560405160405180910390a45050565b600061196f82611837565b6119ae576040517f08c379a00000000000000000000000000000000000000000000000000000000081526004016119a590613d54565b60405180910390fd5b60006119b983610f36565b90508073ffffffffffffffffffffffffffffffffffffffff168473ffffffffffffffffffffffffffffffffffffffff161480611a2857508373ffffffffffffffffffffffffffffffffffffffff16611a1084610803565b73ffffffffffffffffffffffffffffffffffffffff16145b80611a395750611a3881856115b3565b5b91505092915050565b8273ffffffffffffffffffffffffffffffffffffffff16611a6282610f36565b73ffffffffffffffffffffffffffffffffffffffff1614611ab8576040517f08c379a0000000000000000000000000000000000000000000000000000000008152600401611aaf90613de6565b60405180910390fd5b600073ffffffffffffffffffffffffffffffffffffffff168273ffffffffffffffffffffffffffffffffffffffff161415611b28576040517f08c379a0000000000000000000000000000000000000000000000000000000008152600401611b1f90613e78565b60405180910390fd5b611b338383836121e9565b611b3e6000826118ab565b6001600360008573ffffffffffffffffffffffffffffffffffffffff1673ffffffffffffffffffffffffffffffffffffffff1681526020019081526020016000206000828254611b8e9190613e98565b925050819055506001600360008473ffffffffffffffffffffffffffffffffffffffff1673ffffffffffffffffffffffffffffffffffffffff1681526020019081526020016000206000828254611be59190613ecc565b92505081905550816002600083815260200190815260200160002060006101000a81548173ffffffffffffffffffffffffffffffffffffffff021916908373ffffffffffffffffffffffffffffffffffffffff160217905550808273ffffffffffffffffffffffffffffffffffffffff168473ffffffffffffffffffffffffffffffffffffffff167fddf252ad1be2c89b69c2b068fc378daa952ba7f163c4a11628f55a4df523b3ef60405160405180910390a4505050565b600081600001549050919050565b60008183611cba9190613ecc565b905092915050565b60008183611cd09190613f22565b905092915050565b6000611ce4600b611c9e565b9050611cf033826122fd565b611cfa600b61173f565b50565b6000600a60009054906101000a900473ffffffffffffffffffffffffffffffffffffffff16905081600a60006101000a81548173ffffffffffffffffffffffffffffffffffffffff021916908373ffffffffffffffffffffffffffffffffffffffff1602179055508173ffffffffffffffffffffffffffffffffffffffff168173ffffffffffffffffffffffffffffffffffffffff167f8be0079c531659141344cd1fd0a4f28419497f9722a3daafe3b4186f6b6457e060405160405180910390a35050565b8173ffffffffffffffffffffffffffffffffffffffff168373ffffffffffffffffffffffffffffffffffffffff161415611e32576040517f08c379a0000000000000000000000000000000000000000000000000000000008152600401611e2990613fc8565b60405180910390fd5b80600560008573ffffffffffffffffffffffffffffffffffffffff1673ffffffffffffffffffffffffffffffffffffffff16815260200190815260200160002060008473ffffffffffffffffffffffffffffffffffffffff1673ffffffffffffffffffffffffffffffffffffffff16815260200190815260200160002060006101000a81548160ff0219169083151502179055508173ffffffffffffffffffffffffffffffffffffffff168373ffffffffffffffffffffffffffffffffffffffff167f17307eab39ab6107e8899845ad3d59bd9653f200f220920489ca2b5937696c3183604051611f239190612b41565b60405180910390a3505050565b611f3b848484611a42565b611f478484848461231b565b611f86576040517f08c379a0000000000000000000000000000000000000000000000000000000008152600401611f7d9061405a565b60405180910390fd5b50505050565b6060600d8054611f9b90613c1e565b80601f0160208091040260200160405190810160405280929190818152602001828054611fc790613c1e565b80156120145780601f10611fe957610100808354040283529160200191612014565b820191906000526020600020905b815481529060010190602001808311611ff757829003601f168201915b5050505050905090565b60606000821415612066576040518060400160405280600181526020017f3000000000000000000000000000000000000000000000000000000000000000815250905061217a565b600082905060005b60008214612098578080612081906136b3565b915050600a8261209191906140a9565b915061206e565b60008167ffffffffffffffff8111156120b4576120b3612dc9565b5b6040519080825280601f01601f1916602001820160405280156120e65781602001600182028036833780820191505090505b5090505b60008514612173576001826120ff9190613e98565b9150600a8561210e91906140da565b603061211a9190613ecc565b60f81b8183815181106121305761212f613918565b5b60200101907effffffffffffffffffffffffffffffffffffffffffffffffffffffffffffff1916908160001a905350600a8561216c91906140a9565b94506120ea565b8093505050505b919050565b60007f01ffc9a7000000000000000000000000000000000000000000000000000000007bffffffffffffffffffffffffffffffffffffffffffffffffffffffff1916827bffffffffffffffffffffffffffffffffffffffffffffffffffffffff1916149050919050565b6121f48383836124a3565b600073ffffffffffffffffffffffffffffffffffffffff168373ffffffffffffffffffffffffffffffffffffffff16141561223757612232816124a8565b612276565b8173ffffffffffffffffffffffffffffffffffffffff168373ffffffffffffffffffffffffffffffffffffffff16146122755761227483826124f1565b5b5b600073ffffffffffffffffffffffffffffffffffffffff168273ffffffffffffffffffffffffffffffffffffffff1614156122b9576122b48161265e565b6122f8565b8273ffffffffffffffffffffffffffffffffffffffff168273ffffffffffffffffffffffffffffffffffffffff16146122f7576122f6828261272f565b5b5b505050565b6123178282604051806020016040528060008152506127ae565b5050565b600061233c8473ffffffffffffffffffffffffffffffffffffffff16612809565b15612496578373ffffffffffffffffffffffffffffffffffffffff1663150b7a026123656118a3565b8786866040518563ffffffff1660e01b81526004016123879493929190614160565b6020604051808303816000875af19250505080156123c357506040513d601f19601f820116820180604052508101906123c091906141c1565b60015b612446573d80600081146123f3576040519150601f19603f3d011682016040523d82523d6000602084013e6123f8565b606091505b5060008151141561243e576040517f08c379a00000000000000000000000000000000000000000000000000000000081526004016124359061405a565b60405180910390fd5b805181602001fd5b63150b7a0260e01b7bffffffffffffffffffffffffffffffffffffffffffffffffffffffff1916817bffffffffffffffffffffffffffffffffffffffffffffffffffffffff19161491505061249b565b600190505b949350505050565b505050565b6008805490506009600083815260200190815260200160002081905550600881908060018154018082558091505060019003906000526020600020016000909190919091505550565b600060016124fe8461106e565b6125089190613e98565b90506000600760008481526020019081526020016000205490508181146125ed576000600660008673ffffffffffffffffffffffffffffffffffffffff1673ffffffffffffffffffffffffffffffffffffffff168152602001908152602001600020600084815260200190815260200160002054905080600660008773ffffffffffffffffffffffffffffffffffffffff1673ffffffffffffffffffffffffffffffffffffffff168152602001908152602001600020600084815260200190815260200160002081905550816007600083815260200190815260200160002081905550505b6007600084815260200190815260200160002060009055600660008573ffffffffffffffffffffffffffffffffffffffff1673ffffffffffffffffffffffffffffffffffffffff16815260200190815260200160002060008381526020019081526020016000206000905550505050565b600060016008805490506126729190613e98565b90506000600960008481526020019081526020016000205490506000600883815481106126a2576126a1613918565b5b9060005260206000200154905080600883815481106126c4576126c3613918565b5b906000526020600020018190555081600960008381526020019081526020016000208190555060096000858152602001908152602001600020600090556008805480612713576127126141ee565b5b6001900381819060005260206000200160009055905550505050565b600061273a8361106e565b905081600660008573ffffffffffffffffffffffffffffffffffffffff1673ffffffffffffffffffffffffffffffffffffffff168152602001908152602001600020600083815260200190815260200160002081905550806007600084815260200190815260200160002081905550505050565b6127b8838361281c565b6127c5600084848461231b565b612804576040517f08c379a00000000000000000000000000000000000000000000000000000000081526004016127fb9061405a565b60405180910390fd5b505050565b600080823b905060008111915050919050565b600073ffffffffffffffffffffffffffffffffffffffff168273ffffffffffffffffffffffffffffffffffffffff16141561288c576040517f08c379a000000000000000000000000000000000000000000000000000000000815260040161288390614269565b60405180910390fd5b61289581611837565b156128d5576040517f08c379a00000000000000000000000000000000000000000000000000000000081526004016128cc906142d5565b60405180910390fd5b6128e1600083836121e9565b6001600360008473ffffffffffffffffffffffffffffffffffffffff1673ffffffffffffffffffffffffffffffffffffffff16815260200190815260200160002060008282546129319190613ecc565b92505081905550816002600083815260200190815260200160002060006101000a81548173ffffffffffffffffffffffffffffffffffffffff021916908373ffffffffffffffffffffffffffffffffffffffff160217905550808273ffffffffffffffffffffffffffffffffffffffff16600073ffffffffffffffffffffffffffffffffffffffff167fddf252ad1be2c89b69c2b068fc378daa952ba7f163c4a11628f55a4df523b3ef60405160405180910390a45050565b8280546129f690613c1e565b90600052602060002090601f016020900481019282612a185760008555612a5f565b82601f10612a3157805160ff1916838001178555612a5f565b82800160010185558215612a5f579182015b82811115612a5e578251825591602001919060010190612a43565b5b509050612a6c9190612a70565b5090565b5b80821115612a89576000816000905550600101612a71565b5090565b6000604051905090565b600080fd5b600080fd5b60007fffffffff0000000000000000000000000000000000000000000000000000000082169050919050565b612ad681612aa1565b8114612ae157600080fd5b50565b600081359050612af381612acd565b92915050565b600060208284031215612b0f57612b0e612a97565b5b6000612b1d84828501612ae4565b91505092915050565b60008115159050919050565b612b3b81612b26565b82525050565b6000602082019050612b566000830184612b32565b92915050565b600081519050919050565b600082825260208201905092915050565b60005b83811015612b96578082015181840152602081019050612b7b565b83811115612ba5576000848401525b50505050565b6000601f19601f8301169050919050565b6000612bc782612b5c565b612bd18185612b67565b9350612be1818560208601612b78565b612bea81612bab565b840191505092915050565b60006020820190508181036000830152612c0f8184612bbc565b905092915050565b6000819050919050565b612c2a81612c17565b8114612c3557600080fd5b50565b600081359050612c4781612c21565b92915050565b600060208284031215612c6357612c62612a97565b5b6000612c7184828501612c38565b91505092915050565b600073ffffffffffffffffffffffffffffffffffffffff82169050919050565b6000612ca582612c7a565b9050919050565b612cb581612c9a565b82525050565b6000602082019050612cd06000830184612cac565b92915050565b612cdf81612c9a565b8114612cea57600080fd5b50565b600081359050612cfc81612cd6565b92915050565b60008060408385031215612d1957612d18612a97565b5b6000612d2785828601612ced565b9250506020612d3885828601612c38565b9150509250929050565b612d4b81612c17565b82525050565b6000602082019050612d666000830184612d42565b92915050565b600080600060608486031215612d8557612d84612a97565b5b6000612d9386828701612ced565b9350506020612da486828701612ced565b9250506040612db586828701612c38565b9150509250925092565b600080fd5b600080fd5b7f4e487b7100000000000000000000000000000000000000000000000000000000600052604160045260246000fd5b612e0182612bab565b810181811067ffffffffffffffff82111715612e2057612e1f612dc9565b5b80604052505050565b6000612e33612a8d565b9050612e3f8282612df8565b919050565b600067ffffffffffffffff821115612e5f57612e5e612dc9565b5b612e6882612bab565b9050602081019050919050565b82818337600083830152505050565b6000612e97612e9284612e44565b612e29565b905082815260208101848484011115612eb357612eb2612dc4565b5b612ebe848285612e75565b509392505050565b600082601f830112612edb57612eda612dbf565b5b8135612eeb848260208601612e84565b91505092915050565b600060208284031215612f0a57612f09612a97565b5b600082013567ffffffffffffffff811115612f2857612f27612a9c565b5b612f3484828501612ec6565b91505092915050565b600060208284031215612f5357612f52612a97565b5b6000612f6184828501612ced565b91505092915050565b600081519050919050565b600082825260208201905092915050565b6000819050602082019050919050565b612f9f81612c17565b82525050565b6000612fb18383612f96565b60208301905092915050565b6000602082019050919050565b6000612fd582612f6a565b612fdf8185612f75565b9350612fea83612f86565b8060005b8381101561301b5781516130028882612fa5565b975061300d83612fbd565b925050600181019050612fee565b5085935050505092915050565b600060208201905081810360008301526130428184612fca565b905092915050565b61305381612b26565b811461305e57600080fd5b50565b6000813590506130708161304a565b92915050565b6000806040838503121561308d5761308c612a97565b5b600061309b85828601612ced565b92505060206130ac85828601613061565b9150509250929050565b600067ffffffffffffffff8211156130d1576130d0612dc9565b5b6130da82612bab565b9050602081019050919050565b60006130fa6130f5846130b6565b612e29565b90508281526020810184848401111561311657613115612dc4565b5b613121848285612e75565b509392505050565b600082601f83011261313e5761313d612dbf565b5b813561314e8482602086016130e7565b91505092915050565b6000806000806080858703121561317157613170612a97565b5b600061317f87828801612ced565b945050602061319087828801612ced565b93505060406131a187828801612c38565b925050606085013567ffffffffffffffff8111156131c2576131c1612a9c565b5b6131ce87828801613129565b91505092959194509250565b600080604083850312156131f1576131f0612a97565b5b60006131ff85828601612ced565b925050602061321085828601612ced565b9150509250929050565b7f4552433732313a20617070726f76656420717565727920666f72206e6f6e657860008201527f697374656e7420746f6b656e0000000000000000000000000000000000000000602082015250565b6000613276602c83612b67565b91506132818261321a565b604082019050919050565b600060208201905081810360008301526132a581613269565b9050919050565b7f4552433732313a20617070726f76616c20746f2063757272656e74206f776e6560008201527f7200000000000000000000000000000000000000000000000000000000000000602082015250565b6000613308602183612b67565b9150613313826132ac565b604082019050919050565b60006020820190508181036000830152613337816132fb565b9050919050565b7f4552433732313a20617070726f76652063616c6c6572206973206e6f74206f7760008201527f6e6572206e6f7220617070726f76656420666f7220616c6c0000000000000000602082015250565b600061339a603883612b67565b91506133a58261333e565b604082019050919050565b600060208201905081810360008301526133c98161338d565b9050919050565b7f4552433732313a207472616e736665722063616c6c6572206973206e6f74206f60008201527f776e6572206e6f7220617070726f766564000000000000000000000000000000602082015250565b600061342c603183612b67565b9150613437826133d0565b604082019050919050565b6000602082019050818103600083015261345b8161341f565b9050919050565b7f455243373231456e756d657261626c653a206f776e657220696e646578206f7560008201527f74206f6620626f756e6473000000000000000000000000000000000000000000602082015250565b60006134be602b83612b67565b91506134c982613462565b604082019050919050565b600060208201905081810360008301526134ed816134b1565b9050919050565b7f4e6f7420656e6f756768204e4654732072656d61696e21000000000000000000600082015250565b600061352a601783612b67565b9150613535826134f4565b602082019050919050565b600060208201905081810360008301526135598161351d565b9050919050565b7f43616e6e6f74206d696e74206d6f7265207468616e2035204e4654732061742060008201527f6f6e63652e000000000000000000000000000000000000000000000000000000602082015250565b60006135bc602583612b67565b91506135c782613560565b604082019050919050565b600060208201905081810360008301526135eb816135af565b9050919050565b7f4e6f7420656e6f756768204d4154494320746f207075726368617365204e465460008201527f732e000000000000000000000000000000000000000000000000000000000000602082015250565b600061364e602283612b67565b9150613659826135f2565b604082019050919050565b6000602082019050818103600083015261367d81613641565b9050919050565b7f4e487b7100000000000000000000000000000000000000000000000000000000600052601160045260246000fd5b60006136be82612c17565b91507fffffffffffffffffffffffffffffffffffffffffffffffffffffffffffffffff8214156136f1576136f0613684565b5b600182019050919050565b7f4f776e61626c653a2063616c6c6572206973206e6f7420746865206f776e6572600082015250565b6000613732602083612b67565b915061373d826136fc565b602082019050919050565b6000602082019050818103600083015261376181613725565b9050919050565b7f4e6f206574686572206c65667420746f20776974686472617700000000000000600082015250565b600061379e601983612b67565b91506137a982613768565b602082019050919050565b600060208201905081810360008301526137cd81613791565b9050919050565b600081905092915050565b50565b60006137ef6000836137d4565b91506137fa826137df565b600082019050919050565b6000613810826137e2565b9150819050919050565b7f5472616e73666572206661696c65642e00000000000000000000000000000000600082015250565b6000613850601083612b67565b915061385b8261381a565b602082019050919050565b6000602082019050818103600083015261387f81613843565b9050919050565b7f455243373231456e756d657261626c653a20676c6f62616c20696e646578206f60008201527f7574206f6620626f756e64730000000000000000000000000000000000000000602082015250565b60006138e2602c83612b67565b91506138ed82613886565b604082019050919050565b60006020820190508181036000830152613911816138d5565b9050919050565b7f4e487b7100000000000000000000000000000000000000000000000000000000600052603260045260246000fd5b7f4552433732313a206f776e657220717565727920666f72206e6f6e657869737460008201527f656e7420746f6b656e0000000000000000000000000000000000000000000000602082015250565b60006139a3602983612b67565b91506139ae82613947565b604082019050919050565b600060208201905081810360008301526139d281613996565b9050919050565b7f4552433732313a2062616c616e636520717565727920666f7220746865207a6560008201527f726f206164647265737300000000000000000000000000000000000000000000602082015250565b6000613a35602a83612b67565b9150613a40826139d9565b604082019050919050565b60006020820190508181036000830152613a6481613a28565b9050919050565b7f4e6f7420656e6f75676820476574596f75724b69636b73204869546f7073204e60008201527f4654732072656d61696e696e6721000000000000000000000000000000000000602082015250565b6000613ac7602e83612b67565b9150613ad282613a6b565b604082019050919050565b60006020820190508181036000830152613af681613aba565b9050919050565b7f4552433732314d657461646174613a2055524920717565727920666f72206e6f60008201527f6e6578697374656e7420746f6b656e0000000000000000000000000000000000602082015250565b6000613b59602f83612b67565b9150613b6482613afd565b604082019050919050565b60006020820190508181036000830152613b8881613b4c565b9050919050565b600081905092915050565b6000613ba582612b5c565b613baf8185613b8f565b9350613bbf818560208601612b78565b80840191505092915050565b6000613bd78285613b9a565b9150613be38284613b9a565b91508190509392505050565b7f4e487b7100000000000000000000000000000000000000000000000000000000600052602260045260246000fd5b60006002820490506001821680613c3657607f821691505b60208210811415613c4a57613c49613bef565b5b50919050565b7f4f776e61626c653a206e6577206f776e657220697320746865207a65726f206160008201527f6464726573730000000000000000000000000000000000000000000000000000602082015250565b6000613cac602683612b67565b9150613cb782613c50565b604082019050919050565b60006020820190508181036000830152613cdb81613c9f565b9050919050565b7f4552433732313a206f70657261746f7220717565727920666f72206e6f6e657860008201527f697374656e7420746f6b656e0000000000000000000000000000000000000000602082015250565b6000613d3e602c83612b67565b9150613d4982613ce2565b604082019050919050565b60006020820190508181036000830152613d6d81613d31565b9050919050565b7f4552433732313a207472616e73666572206f6620746f6b656e2074686174206960008201527f73206e6f74206f776e0000000000000000000000000000000000000000000000602082015250565b6000613dd0602983612b67565b9150613ddb82613d74565b604082019050919050565b60006020820190508181036000830152613dff81613dc3565b9050919050565b7f4552433732313a207472616e7366657220746f20746865207a65726f2061646460008201527f7265737300000000000000000000000000000000000000000000000000000000602082015250565b6000613e62602483612b67565b9150613e6d82613e06565b604082019050919050565b60006020820190508181036000830152613e9181613e55565b9050919050565b6000613ea382612c17565b9150613eae83612c17565b925082821015613ec157613ec0613684565b5b828203905092915050565b6000613ed782612c17565b9150613ee283612c17565b9250827fffffffffffffffffffffffffffffffffffffffffffffffffffffffffffffffff03821115613f1757613f16613684565b5b828201905092915050565b6000613f2d82612c17565b9150613f3883612c17565b9250817fffffffffffffffffffffffffffffffffffffffffffffffffffffffffffffffff0483118215151615613f7157613f70613684565b5b828202905092915050565b7f4552433732313a20617070726f766520746f2063616c6c657200000000000000600082015250565b6000613fb2601983612b67565b9150613fbd82613f7c565b602082019050919050565b60006020820190508181036000830152613fe181613fa5565b9050919050565b7f4552433732313a207472616e7366657220746f206e6f6e20455243373231526560008201527f63656976657220696d706c656d656e7465720000000000000000000000000000602082015250565b6000614044603283612b67565b915061404f82613fe8565b604082019050919050565b6000602082019050818103600083015261407381614037565b9050919050565b7f4e487b7100000000000000000000000000000000000000000000000000000000600052601260045260246000fd5b60006140b482612c17565b91506140bf83612c17565b9250826140cf576140ce61407a565b5b828204905092915050565b60006140e582612c17565b91506140f083612c17565b925082614100576140ff61407a565b5b828206905092915050565b600081519050919050565b600082825260208201905092915050565b60006141328261410b565b61413c8185614116565b935061414c818560208601612b78565b61415581612bab565b840191505092915050565b60006080820190506141756000830187612cac565b6141826020830186612cac565b61418f6040830185612d42565b81810360608301526141a18184614127565b905095945050505050565b6000815190506141bb81612acd565b92915050565b6000602082840312156141d7576141d6612a97565b5b60006141e5848285016141ac565b91505092915050565b7f4e487b7100000000000000000000000000000000000000000000000000000000600052603160045260246000fd5b7f4552433732313a206d696e7420746f20746865207a65726f2061646472657373600082015250565b6000614253602083612b67565b915061425e8261421d565b602082019050919050565b6000602082019050818103600083015261428281614246565b9050919050565b7f4552433732313a20746f6b656e20616c7265616479206d696e74656400000000600082015250565b60006142bf601c83612b67565b91506142ca82614289565b602082019050919050565b600060208201905081810360008301526142ee816142b2565b905091905056fea2646970667358221220487cd6baf8a22780f955cc83746e91b6521bdfcb71f9b8191b137992a590d7f264736f6c634300080a0033",
  "linkReferences": {},
  "deployedLinkReferences": {}
}